:100000000C945C000C9479000C9479000C947900A9
:100010000C9479000C9479000C9479000C9479007C
:100020000C9479000C943B010C9479000C947900A9
:100030000C9479000C9479000C9479000C9479005C
:100040000C94D4010C9479000C9479000C947900F0
:100050000C9479000C9479000C9479000C9479003C
:100060000C9479000C947900000000070002010054
:100070000003040600000000000000000102040864
:100080001020408001020408102001020408102002
:10009000040404040404040402020202020203032E
:1000A0000303030300000000250028002B000000CC
:1000B0000000240027002A0011241FBECFEFD8E043
:1000C000DEBFCDBF11E0A0E0B1E0E2E6F8E002C0A3
:1000D00005900D92A230B107D9F721E0A2E0B1E07E
:1000E00001C01D92A732B207E1F70E943A030C94B7
:1000F00047030C940000CF92DF92EF92FF920F9390
:100100001F936B017C01CA01B901C114D104E10440
:10011000F10421F4C12CD12C7601C394C0920B01BF
:10012000D0920C01E0920D01F0920E0110930A01A1
:1001300000930901209170002E7F20937000209180
:10014000B0002C7F2093B0002091B100277F209336
:10015000B1002091B6002F7D2093B6002091700051
:100160002D7F209370002091B10024602093B10076
:100170002091B1002C7F2093B10020E034E244E7CD
:100180005BE40E94A40320E030E040E85CE30E94CE
:10019000A4030E944A0320E031E0261B370B309372
:1001A0000301209302011F910F91FF90EF90DF90C8
:1001B000CF90089510920501109206011092070148
:1001C00010920801109204018091020190910301A4
:1001D0008093B200E0E7F0E0808181608083089541
:1001E0008091050190910601A0910701B09108014D
:1001F0000196A11DB11D8093050190930601A09366
:100200000701B09308018091050190910601A0912A
:100210000701B091080140910B0150910C016091D0
:100220000D0170910E0184179507A607B70710F10D
:100230008091040181111EC081E0809304018091AE
:10024000050190910601A0910701B0910801841B5E
:10025000950BA60BB70B8093050190930601A09315
:100260000701B0930801E0910901F0910A01099595
:100270001092040108951F920F920FB60F9211244D
:100280002F933F934F935F936F937F938F939F939E
:10029000AF93BF93EF93FF9380910201909103017D
:1002A0008093B2000E94F000FF91EF91BF91AF9157
:1002B0009F918F917F916F915F914F913F912F917E
:1002C0000F900FBE0F901F901895CF93DF93C0E053
:1002D000D0E0FE01EE5EFE4F8081882379F0208120
:1002E00030E061E080910F01909110018217930737
:1002F0000CF060E08C2F8E5F0E9404032196CC30BE
:10030000D10539F780910F0190911001019681304C
:1003100021E092071CF020E080E002C0282F892F06
:1003200020930F0180931001DF91CF910895EEEF9C
:10033000E80FEC3040F4F0E0EE5EFE4F60836111B8
:1003400002C00C94040308950F931F9305E611E077
:1003500020E030E040E858E361E070E080E090E0C9
:100360000E947B001F910F910C94DA000E94A4015F
:1003700061E08DE00C94CB02609111018DE00E9450
:1003800097019091000180911101890F80931101D3
:1003900081508E3F18F09195909300016EE170E0CE
:1003A00080E090E00C9441021F920F920FB60F92E2
:1003B00011242F933F938F939F93AF93BF9380917B
:1003C0001F0190912001A0912101B0912201309153
:1003D0001E0123E0230F2D3720F40196A11DB11D2E
:1003E00005C026E8230F0296A11DB11D20931E0112
:1003F00080931F0190932001A0932101B0932201CB
:100400008091230190912401A0912501B0912601B2
:100410000196A11DB11D8093230190932401A09307
:100420002501B0932601BF91AF919F918F913F918C
:100430002F910F900FBE0F901F9018953FB7F89413
:100440008091230190912401A0912501B091260172
:1004500026B5A89B05C02F3F19F00196A11DB11D1F
:100460003FBF6627782F892F9A2F620F711D811D3C
:10047000911D42E0660F771F881F991F4A95D1F79B
:100480000895CF92DF92EF92FF92CF93DF936B01AB
:100490007C010E941E02EB01C114D104E104F104AD
:1004A00079F00E941E026C1B7D0B683E7340A0F326
:1004B00081E0C81AD108E108F108C851DC4FECCF3F
:1004C000DF91CF91FF90EF90DF90CF9008957894D7
:1004D00084B5826084BD84B5816084BD85B5826049
:1004E00085BD85B5816085BDEEE6F0E080818160E7
:1004F0008083E1E8F0E010828081826080838081E7
:1005000081608083E0E8F0E0808181608083E1EBBE
:10051000F0E0808184608083E0EBF0E080818160A6
:100520008083EAE7F0E0808184608083808182605C
:100530008083808181608083808180688083109245
:10054000C1000895833081F028F4813099F0823021
:10055000A1F008958630A9F08730B9F08430D1F445
:10056000809180008F7D03C0809180008F77809381
:100570008000089584B58F7702C084B58F7D84BDD7
:1005800008958091B0008F7703C08091B0008F7D77
:100590008093B0000895CF93DF9390E0FC01E4587E
:1005A000FF4F2491FC01E057FF4F8491882349F1CC
:1005B00090E0880F991FFC01E255FF4FA591B4917F
:1005C0008C559F4FFC01C591D4919FB7611108C014
:1005D000F8948C91209582238C93888182230AC081
:1005E000623051F4F8948C91322F309583238C93A0
:1005F0008881822B888304C0F8948C91822B8C9301
:100600009FBFDF91CF9108950F931F93CF93DF93F7
:100610001F92CDB7DEB7282F30E0F901E859FF4F20
:100620008491F901E458FF4F1491F901E057FF4F0D
:1006300004910023C9F0882321F069830E94A2025B
:100640006981E02FF0E0EE0FFF1FEC55FF4FA59101
:10065000B4919FB7F8948C91611103C010958123D8
:1006600001C0812B8C939FBF0F90DF91CF911F9181
:100670000F9108950E9467020E94B601C0E0D0E089
:100680000E94BC012097E1F30E940000F9CFF8948A
:100690000C942F0404D06894B11150C0089533D045
:1006A00088F09F5790F0B92F9927B751A0F0D1F05B
:1006B000660F771F881F991F1AF0BA95C9F712C0E5
:1006C000B13081F03AD0B1E0089537C0672F782F6C
:1006D0008827B85F39F0B93FCCF386957795679551
:1006E000B395D9F73EF490958095709561957F4FBD
:1006F0008F4F9F4F089557FD9058440F551F59F045
:100700005F3F71F04795880F97FB991F61F09F3FFE
:1007100079F087950895121613061406551FF2CF27
:100720004695F1DF08C0161617061806991FF1CF77
:1007300086957105610508940895E894BB2766279E
:100740007727CB0197F908950BD078C069D028F0AE
:100750006ED018F0952309F05AC05FC01124EECF77
:10076000CADFA0F3959FD1F3950F50E0551F629F0C
:10077000F001729FBB27F00DB11D639FAA27F00DFA
:10078000B11DAA1F649F6627B00DA11D661F829F21
:100790002227B00DA11D621F739FB00DA11D621F06
:1007A000839FA00D611D221F749F3327A00D611D23
:1007B000231F849F600D211D822F762F6A2F112405
:1007C0009F5750408AF0E1F088234AF0EE0FFF1F58
:1007D000BB1F661F771F881F91505040A9F79E3F8F
:1007E000510570F014C0AACF5F3FECF3983EDCF3E4
:1007F000869577956795B795F795E7959F5FC1F7CC
:10080000FE2B880F911D9695879597F9089597F976
:100810009F6780E870E060E008959FEF80EC0895A6
:1008200000240A94161617061806090608950024CF
:100830000A9412161306140605060895092E039449
:10084000000C11F4882352F0BB0F40F4BF2B11F4BD
:1008500060FF04C06F5F7F4F8F4F9F4F0895F894E4
:02086000FFCFC8
:0208620005008F
:00000001FF
